:1000000080311928053400347E1480318B1A0B1D81
:100010000D288831EA20803117280B1F172821006E
:10002000111C17282000111C17288831A6207E10CB
:10003000090080311B28803102208031F800803196
:1000400003208031F90021008731FF278031CA0069
:10005000FA012000E601C33084000030850007303B
:1000600088316C20803152308400013085000E30A0
:1000700088316C207E1020008A31182A5B08803974
:100080002100A00020005B352100A2002000DA1F23
:100090004B28210022142100220803195E28220A7D
:1000A000031D5B2800302000DB000030DA00003048
:1000B000D9000030D8002000DA176728003020006F
:1000C000DB000030DA000030D9000030D8005F08D3
:1000D0008039E00060082100A00620005F35210083
:1000E000A1002000DE1F7628210021142100210814
:1000F00003198928210A031D862800302000DF000B
:100100000030DE000030DD000030DC002000DE17B3
:10011000922800302000DF000030DE000030DD00DB
:100120000030DC0021002108031D2208031DA22845
:1001300000302000DB000030DA000030D900003051
:10014000D800080020005808F3005E088931882193
:10015000803174082100AC007308AB002B0820002C
:10016000E000E101E201E30163082100A6002000B4
:1001700062082100A500200061082100A4002000E1
:1001800060082100A3002C082000E000E101E2014A
:10019000E30163082100AA00200062082100A900F1
:1001A000200061082100A800200060082100A700AD
:1001B00020005908F3005D088931882180317408D6
:1001C0002100AC007308AB002B082000E000E10127
:1001D000E201E30160082100A3072000610821007B
:1001E000A43D200062082100A53D200063082100F5
:1001F000A63D2C082000E000E101E201E3016008D7
:100200002100A707200061082100A83D2000620806
:100210002100A93D200063082100AA3D20005A08C2
:10022000F3005C0889318821803174082100AC001A
:100230007308AB002B082000E000E101E201E301BC
:1002400060082100A307200061082100A43D2000D0
:1002500062082100A53D200063082100A63D2C086E
:100260002000E000E101E201E30160082100A707AE
:10027000200061082100A83D200062082100A93D5E
:10028000200063082100AA3D0830A335A40DA50D68
:10029000A60D890B452920005908F3005C08893117
:1002A0008821803174082100AC007308AB002B0852
:1002B000A3072C08A43D0030A53DA63D200058080A
:1002C000F3005D0889318821803174082100AC0079
:1002D0007308AB002B08A3072C08A43D0030A53DF4
:1002E000A63D0830A335A40DA50DA60D890B7229D6
:1002F00020005808F3005C08893188218031740897
:100300002100AC007308AB002B08A3072C08A43D08
:100310000030A53DA63D20005908F3005E08893154
:100320008821803174082100AC007308AB002B08D1
:10033000A7072C08A83D0030A93DAA3D20005A0877
:10034000F3005D0889318821803174082100AC00F8
:100350007308AB002B08A7072C08A83D0030A93D67
:10036000AA3D20005A08F3005E08893188218031B7
:1003700074082100AC007308AB002B082000E000DB
:1003800021002C082000E100E201E3010830E03503
:10039000E10DE20DE30D890BC72960082100A707D5
:1003A000200061082100A83D200062082100A93D2D
:1003B000200063082100AA3D26082000E000E1019A
:1003C000E201E30160082100A70720006108210085
:1003D000A83D200062082100A93D200063082100FB
:1003E000AA3D0830A335A40DA50DA60D890BF22951
:1003F000220821072000E000E101E10D6008823EB3
:100400002100AB00FF302000613D2100AC00A91BA2
:100410001E2A0130A735A80DA90DAA0D890B0A2A9D
:10042000A61B27140130A335A40DA50DA60D890B1D
:10043000132AFF30AB07FF30AC3D072AA101A61FEE
:10044000402AFF3023052000E000FF302100240572
:100450002000E100FF30210025052000E2007F3070
:10046000210026052000E3006308620461046004A3
:10047000031D3D2A2100271C402A2100A101A10AB9
:1004800021080319772A0130A7070030A83D003062
:10049000A93D0030AA3D2A1C772A27082000E00049
:1004A000210028082000E100210029082000E200A6
:1004B00021002A082000E3000130E400E337E20CC9
:1004C000E10CE00CE40B5E2A63082100AA00200086
:1004D00062082100A900200061082100A800200076
:1004E00060082100A7000130AB070030AC3D2C08AC
:1004F000803A2000E00080306002031D822AFF3035
:1005000021002B02031C8E2A7F302100AA0080309C
:10051000A9000030A8000030A700B62A21002C084E
:10052000803A2000E00080306002031D9A2A0130EA
:1005300021002B020318A72A00302100AA00003056
:10054000A9000030A8000030A700A001B62A2100B1
:100550002B08A200FF30A705FF30A8057F30A905B2
:100560000030AA052218A9172236AA002008200068
:10057000E00060082100AA042A082000DB00210016
:1005800029082000DA00210028082000D9002100D5
:1005900027082000D800080006308731E72782317D
:1005A00074082200CD007308CC003B302000DB0033
:1005B000A030DA002830D9000A30D80022004C08D8
:1005C000F3004D08F400F501F60100308B31A9234A
:1005D00082317608DF007508DE007408DD007308DC
:1005E000DC0080313E2082315B082200A300200025
:1005F0005A082200A200200059082200A100200071
:1006000058082200A0004630A7001C30A600403049
:10061000A5000030A4004030AB00A030AA0000309C
:10062000A9000030A80027082000DB0022002608CF
:100630002000DA00220025082000D900220024082A
:100640002000D800BF30C7008030C6000030C50091
:100650000030C400220023082000AD002200220840
:100660002000AC00220021082000AB00220020085E
:100670002000AA0022002B082000B10022002A0836
:100680002000B000220029082000AF002200280826
:100690002000AE008C31E02482312D08CB002C08E4
:1006A000CA002B08C9002A08C8008E314F268231A3
:1006B0004708DF004608DE004508DD004408DC008E
:1006C00080313E2082315B082200AF0020005A08B2
:1006D0002200AE00200059082200AD00200058087A
:1006E0002200AC002F082100B00022002E082100BB
:1006F000AF0022002D082100AE0022002C082100AE
:10070000AD0085311B25823130082200D100210047
:100710002F082200D00021002E082200CF00210047
:100720002D082200CE0033302000DB00C430DA0078
:100730002530D9008030D800220051082000DF0089
:10074000220050082000DE0022004F082000DD00BB
:1007500022004E082000DC0080313E2082315B0800
:100760002200C30020005A082200C20020005908BD
:100770002200C100200058082200C00051082000BB
:10078000DB00220050082000DA0022004F08200081
:10079000D90022004E082000D80022004308200083
:1007A000DF00220042082000DE0022004108200075
:1007B000DD00220040082000DC0080313E20823134
:1007C0005B082200C70020005A082200C600200053
:1007D00059082200C500200058082200C4003A3001
:1007E0002000C700A830C6000030C5001030C4008B
:1007F0003930DB007830DA002D30D9001630D800DF
:10080000220051082000DF00220050082000DE00F6
:1008100022004F082000DD0022004E082000DC00EE
:1008200080313E2082315B08CB005A08CA0059084B
:10083000C9005808C8008E314F268231470822006F
:10084000CB00200046082200CA00200045082200F4
:10085000C900200044082200C80051082000DB0025
:10086000220050082000DA0022004F082000D900A2
:1008700022004E082000D800220047082000DF0098
:10088000220046082000DE00220045082000DD008E
:10089000220044082000DC0080313E2082315B08C9
:1008A000C7005A08C6005908C5005808C4002200ED
:1008B0004B082000CB0022004A082000CA0022007A
:1008C00049082000C900220048082000C8008E31D5
:1008D0004F26823147082200B3002000460822003C
:1008E000B200200045082200B10020004408220088
:1008F000B00033082000AD00220032082000AC0018
:10090000220031082000AB00220030082000AA009D
:100910003F30B1008030B0000030AF000030AE009A
:100920008C31E02482312D082200B70020002C08F1
:100930002200B60020002B082200B50020002A0863
:100940002200B400C3302000C7008830C6009330B6
:10095000C5003330C400220037082000CB0022003D
:1009600036082000CA00220035082000C9002200F5
:1009700034082000C8008E314F26823147082200FB
:10098000BB00200046082200BA00200045082200D3
:10099000B900200044082200B80042302000C700FF
:1009A0000030C6000030C5000030C4003F30DB001E
:1009B000E630DA006630D9006630D80022003B0805
:1009C0002000DF0022003A082000DE002200390863
:1009D0002000DD00220038082000DC0080313E20AD
:1009E00082315B08CB005A08CA005908C900580870
:1009F000C8008E314F26823147082200BF002000F8
:100A000046082200BE00200045082200BD0020004C
:100A100044082200BC003F08F6003E08F5003D08EF
:100A2000F4003C08F3008A31CC2274082100C6008F
:100A30007308C500080000302000A3000030A200A9
:100A40000030A1000030A000210030082000A700E5
:100A500021002F082000A60021002E082000A5005C
:100A600021002D082000A4008B312E238531031C8A
:100A7000432D00302100B0000030AF000030AE0048
:100A80000030AD00080000302100B8000030B70091
:100A90000030B6000030B5003F302000A300C03069
:100AA000A2000030A1000030A0002100300820008A
:100AB000A70021002F082000A60021002E082000FA
:100AC000A50021002D082000A4008B312E238531A4
:100AD0000318BF2D4030AD002D30AC00F830AB0016
:100AE0005430AA00210030082000B10021002F0856
:100AF0002000B00021002E082000AF0021002D08AA
:100B00002000AE008C31E02485312D082100B0009A
:100B100020002C082100AF0020002B082100AE008F
:100B200020002A082100AD003F302000C70080309F
:100B3000C6000030C5000030C40021003808200085
:100B4000CB00210037082000CA0021003608200011
:100B5000C900210035082000C8008E314F2685319C
:100B600047082100B800200046082100B7002000F7
:100B700045082100B6002000440821004B2D3F30DD
:100B8000DB008030DA000030D9000030D8002100CE
:100B900030082000DF0021002F082000DE002100A7
:100BA0002E082000DD0021002D082000DC00893106
:100BB0006B2185315B082100B00020005A0821001C
:100BC000AF00200059082100AE0020005808210085
:100BD000AD003008C2002F08C1002E08C0002D084B
:100BE000BF000030BC000030BB000030BA00003055
:100BF000B9000130BD000030BE0033302000A3003A
:100C0000D630A200BF30A1009530A00021004208DC
:100C10002000A700210041082000A6002100400874
:100C20002000A50021003F082000A4008B312E23C6
:100C300085310318E22E210042082000C700210060
:100C400041082000C600210040082000C500210006
:100C50003F082000C40021003C082000CB002100F8
:100C60003B082000CA0021003A082000C9002100EA
:100C700039082000C8008E314F26853147082100F1
:100C8000BC00200046082100BB00200045082100D0
:100C9000BA00200044082100B9000130BD0700302F
:100CA000BE3D3D08FF3EF300FF303E3DF400F50140
:100CB000F41BF5037508F60001308B31A92385314B
:100CC0007608DF007508DE007408DD007308DC00BC
:100CD00021003008F6002F08F5002E08F4002D083A
:100CE000F30088318820853176082000DB00750804
:100CF000DA007408D9007308D80080313E208531AD
:100D00005B08B1005A08B0005908AF005808AE009F
:100D100021003D08F3003E08F400890D893B890954
:100D2000F500F60001308B31A92385317608AD003E
:100D30007508AC007408AB007308AA008C31E0247D
:100D400085312D082100B40020002C082100B300BB
:100D500020002B082100B20020002A082100B10049
:100D600034082000DB00210033082000DA002100D5
:100D700032082000D900210031082000D8002100CD
:100D800042082000DF00210041082000DE00210091
:100D900040082000DD0021003F082000DC008031F9
:100DA0003E2085315B082100C20020005A08210046
:100DB000C100200059082100C0002000580821006F
:100DC000BF00FD2D210042082000A30021004108A2
:100DD0002000A200210040082000A10021003F08BF
:100DE0002000A000B330A700D630A600BF30A50079
:100DF0009530A4008B312E238531031C1B2E21003E
:100E00003C082000C70021003B082000C60021004C
:100E10003A082000C500210039082000C400210044
:100E200038082000CB00210037082000CA0021002C
:100E300036082000C900210035082000C8008E3186
:100E40004F2647082100B000200046082100AF00CF
:100E5000200045082100AE00200044082100AD001C
:100E60000800D62F003020000C1A0130F1000030AD
:100E70000D180130F2007108031D512F21004A089E
:100E80000319512F7908803AF00080307002031D59
:100E90004B2F01307802031C512FFF30F807FF3031
:100EA000F93D71082100CA007208031D692F480826
:100EB0000319692F7908803AF00080307002031D11
:100EC000632F053078020318692F0130F8070030CE
:100ED000F93D72082100C80001302200D400003022
:100EE000D5008D148C117908803AF00080307002A2
:100EF000031D7C2F02307802031C902F22000C125D
:100F00007908803AF00080307002031D892F033089
:100F10007802031C8E2F22000D10932F2200922F97
:100F200022000C160D140D1508000230D4000030FC
:100F3000D5008D108C157908803AF0008030700251
:100F4000031DA42F04307802031CB92F22000D10BA
:100F50007908803AF00080307002031DB12F05300F
:100F60007802031CB62F22000C12080022000C1677
:100F7000080022000C160D140800D401D501210030
:100F80000C160D147908803AF00080307002031DB1
:100F9000CB2F01307802031CD02F22000D11080046
:100FA00022000D150800D401D50108005508003AAB
:100FB0000319DB2FD32F5408003A0319322F013ABB
:100FC0000319952F033A0319BD2FD32F0800F600FC
:100FD0007608F500F50DF50D1D08750683397506C3
:100FE0009D001D140330890BF32F000021009D1478
:100FF0009D18F82F1C08F4001B08F30008000134AA
:101094000800080016302100970008007408E100D9
:1010A4007308E00008007408E3007308E200080015
:1010B40074082200E5007308E400080074082200A4
:1010C400E9007308E800080074082200E7007308C8
:1010D400E6000800640080010131890B6D280034AA
:1010E400A0309E009B019C0101309D0008007030DF
:1010F400210099009801220096010800F3002000C5
:10110400111E8128730823009A00080076087504CC
:1011140074047304031908008030F6060800680894
:1011240069040319080069088A0068080A008831FC
:1011340008002200660867040319080067088A008B
:1011440066080A0088310800111022005708F100CF
:101154005608F0008831B220883188319B2008007D
:101164002000181DBC2818107108970070089600FC
:1011740018140800710897007008960008002100F0
:101184001508C03917389500B23020009500B230E8
:101194002100C9000B118B164A30F3000830F4000B
:1011A4008831602008008931012188318831792013
:1011B400883188314C2088318831722088318931D6
:1011C4001B2188318831C12088318931A721080049
:1011D4000B11210049082000950001302200D80796
:1011E4000030D93D00305902643003195802031C01
:1011F4000800883191202200D801D9010800043068
:1012040022008C0008308D00F13021008C00B130B8
:101214008D00DE3023008D000F308C00053024005B
:101224008D008C012100951322009D0101309E0048
:101234000800200099019E30970058309600111044
:1012440017082200D700200016082200D60021002B
:1012540011144B30F3000830F4008831662031302B
:101264002000980008000130F0007008FA070330ED
:101274007A02031C40292100C701C70A05307A02FB
:10128400031C47292200DD01DD0A0A307A02031C0F
:1012940008002200DC01DC0AFA010800A001A10117
:1012A400731C58297508A0077608A13D0130F5354F
:1012B400F60D890B59290130F436F30C890B5E299C
:1012C40073087404031D52292108F4002008F30054
:1012D40008008030DB065F08C7005E08C6005D08B2
:1012E400C5005C08C4005B08CB005A08CA00590852
:1012F400C9005808C8008E314F264708DB0046084D
:10130400DA004508D9004408D8000800A400A00168
:10131400A1017308F500F6017508A2007608A30080
:10132400241C98292208A0072308A13D0130A235D6
:10133400A30D890B99290310A40C2408031D9229D9
:101344002108F4002008F3000800083023009F005F
:1013540080309D0024309E00CF309B009C010030E3
:10136400F3000030F40088315A2089310030F30052
:101374000030F4008831552089310030F30000300A
:10138400F40088315020DF010800A701A31FD129F0
:10139400A209A309A20A0319A30AA701A70AA51F60
:1013A400DC29A409A509A40A0319A50A0130F70038
:1013B4007708A706A801A9012208230403190B2A08
:1013C400A601A60AA31BF0290130A235A30D890B9F
:1013D400E7290130F7007708A607E4290130A8358A
:1013E400A90D890BF12923082502031DFB292208D5
:1013F4002402031C022A2208A4022308A53B281461
:101404000130A336A20C890B032A0130A602031D66
:10141400F02927080319132AA809A909A80A0319F6
:10142400A90A2908A3002808A20008008831D520A9
:101434008A318B170B173130F3000730F4008831F1
:1014440060208A313530F3000930F4008831662099
:101454008A31210047080319332AC7018231CC227B
:101464008A3122005D0803193B2ADD018C313D24B9
:101474008A3122005C0803192B2ADC01200066084B
:10148400E50001302100C3070030C43D2000660898
:10149400003021004402B53003194302031C562ACC
:1014A400B430C3000030C4008A316B228A3120007A
:1014B400650866060319612A2100C301C4012000DE
:1014C40066080319682A22000C152B2A22000C1125
:1014D4002B2A780879040319782A7B2A0030210002
:1014E4004402B53003194302031C9D2A2000E6017F
:1014F400080079088500780884008435850D00305B
:1015040084071030053D80388500003FF300013F1B
:10151400F4007308023EF5000030743DF6007608CE
:10152400803AF7004608803A7702031D9B2A450853
:101534007502031C702A79088500780884008435B4
:10154400850D003084071030053D80388500003F4C
:10155400F300013FF4007308FF3EF500FF30743DD3
:10156400F60021004608803AF7007608803A7702B0
:10157400031DBE2A75084502031808000030210027
:101584004402B53003194302031C08002000E6019D
:10159400E60A08000310750D760D2000A500250845
:1015A400031DDD2A0030F6000030F5000030F400A1
:1015B4000030F30008007308A0007408A100750847
:1015C400A2007608A3001F30A336A20CA10CA00C25
:1015D400890BE62A2008A400F517FF30F305FF3035
:1015E400F405FF30F5050030F6059630A502A51F79
:1015F4000E2B2508803A973E031CD42A0130F63678
:10160400F50CF40CF30C890B012B0130A00020081D
:10161400A50703191F2B002B203025020318D42AF9
:10162400250803191F2B0130F335F40DF50DF60DC4
:10163400890B162B0130A502122B2408031908006C
:10164400F309F409F509F609F30A0319F40A03196D
:10165400F50A0319F60A080000302005F3000030EB
:101664002105F40080302205F5007F302305F600C3
:101674007608750474047304031D482B0030A3001A
:101684000030A2000030A1000030A000003024058A
:10169400F30000302505F40080302605F5007F3086
:1016A4002705F6007608750474047304031D622B81
:1016B4000030A7000030A6000030A5000030A400D0
:1016C400A31F7C2B0030F3000030F4000030F50041
:1016D4008030F6002008F3022108F43B2208F53B91
:1016E4002308F63B7608A3007508A2007408A1003D
:1016F4007308A000A71F962B0030F3000030F400FD
:101704000030F5008030F6002408F3022508F43B8D
:101714002608F53B2708F63B7608A7007508A600BF
:101724007408A5007308A4008030A3068030A706BF
:1017340027082302031D080026082202031D0800AF
:1017440025082102031D08002408200208002000A7
:10175400A4002408031DF61FBF2B7309A6007409F7
:10176400A7007509A8007609A900A60A0319A70A03
:101774000319A80A0319A90AC72B7608A900750832
:10178400A8007408A7007308A600760875047404FA
:101794007304031DD62B0030F6000030F500003032
:1017A400F4000030F30008009630A500FE3029054F
:1017B4000319FB2B0130A0002008A5070130A9362E
:1017C400A80CA70CA60C890BE12BD82B0130A00088
:1017D4002008A5070130A6070030A73D0030A83D2A
:1017E4000030A93D0130A936A80CA70CA60C890B22
:1017F400F52BFF30290503190D2CE82B02302502A7
:10180400031C0F2C0130A5020130A635A70DA80D2D
:10181400A90D890B072CA81F002C2518192CFF30A3
:10182400A605FF30A7057F30A805FF30A9050310E2
:10183400A50C2508A000A101A201A3011830A03520
:10184400A10DA20DA30D890B212C2008A6042108AB
:10185400A7042208A8042308A9042408031DF61FCA
:10186400342CA9172908F6002808F5002708F400E5
:101874002608F300080064302000A2000030A30012
:10188400210046082000A500210045082000A400EE
:101894008931C7218C312308B3002208B2000A30F1
:1018A400A2000030A3003308F4003208F3009C3097
:1018B400F500FF30F600893150218C3121004508B4
:1018C40073072000A40021004608743D2000A500F1
:1018D4008931C7218C312308B1002208B0003308B4
:1018E400F4003208F3009C30F500FF30F600893133
:1018F40050218C317308AA007408AB003108F4003D
:101904003008F300F630F500FF30F600893150213D
:101914008C3173082A07AC0074082B3DAD002100FC
:10192400450820002C07AE002100460820002D3D6C
:10193400AF005430883180208C313A308831802097
:101944008C3120003208303E883180208C312000D8
:101954003008303E883180208C3120002E08303E03
:10196400883180208C310930883180208C314D3091
:10197400883180208C313A30883180208C3178084D
:10198400303E883180208C310930883180208C3180
:101994004830883180208C313A30883180208C3135
:1019A40020006608303E883180208C310D3088312B
:1019B40080208C310A308831802008003108803939
:1019C400BB003135C200B01B421442080319F82C85
:1019D400420A031DF52C0030B1000030B000003085
:1019E400AF000030AE00B017B101002D0030B100DF
:1019F4000030B0000030AF000030AE002D08803958
:101A0400B2003208BB062D35C300AC1B4314430897
:101A140003191A2D430A031D172D0030AD000030A1
:101A2400AC000030AB000030AA00AC17AD01222D91
:101A34000030AD000030AC000030AB000030AA0034
:101A44002D082C042B042A04031D412D0030B10061
:101A54000030B0000030AF000030AE008030B00481
:101A64007F30B1043B08B2003208B1043108AD0044
:101A74003008AC002F08AB002E08AA00080042086A
:101A8400031D4D2D0030AD000030AC000030AB0024
:101A94000030AA0008004208B200B3013308B500C0
:101AA40043083202B400031CB50334087F3EBC0073
:101AB4000030353DBD003108BA003008B9002F08A8
:101AC400B8002E08B7000030B1000030B00000307C
:101AD400AF000030AE000030C1000030C000003064
:101AE400BF000030BE00C3011A3043020318B22DF8
:101AF40043080319942D0130B735B80DB90DBA0D4B
:101B0400890B7E2D0130AE35AF0DB00DB10D890BB3
:101B1400852DC11B2E140130BE35BF0DC00DC10D66
:101B2400890B8E2D2D083A02031DA22D2C08390293
:101B3400031DA22D2B083802031DA22D2A083702EB
:101B4400031CAD2D41172A08B7022B08B83B2C08FB
:101B5400B93B2D08BA3B0130B2003208C307762DD9
:101B64003A08390438043704031D3E14B01BCF2D42
:101B74000130AE35AF0DB00DB10D890BBB2DC11BBE
:101B84002E140130BE35BF0DC00DC10D890BC42DFF
:101B9400FF30BC07FF30BD3DB82DC301C11FE82D88
:101BA400FF303E05B200FF303F05B300FF30400573
:101BB400B4007F304105B5003508340433043204E1
:101BC40003192E18E62DE82DC301C30A430803198F
:101BD400112E0130AE070030AF3D0030B03D003073
:101BE400B13D311C112E2E08B2002F08B30030086D
:101BF400B4003108B5000130B600B537B40CB30CED
:101C0400B20CB60BFF2D3508B1003408B000330810
:101C1400AF003208AE000130BC070030BD3D3D08C6
:101C2400803AB20080303202031D1A2EFF303C028B
:101C3400031C292EFF302000BC000030BD00003002
:101C4400B1000030B0000030AF000030AE00200022
:101C54003D08803AB20080303202031D332E013039
:101C64003C020318412E2000BC01BD010030B1002C
:101C74000030B0000030AF000030AE00BB012000E7
:101C84003C08C200421C482EB0174C2E7F30B200D4
:101C94003208B0054236B100342D47088039D400EB
:101CA4004735D600C61B561456080319672E560A24
:101CB400031D642E0030C7000030C6000030C5008C
:101CC4000030C400C617C7016F2E0030C7000030B3
:101CD400C6000030C5000030C4004B088039D50070
:101CE40055085406031D54174B35D500CA1B55140B
:101CF400550803198B2E550A031D882E0030CB007E
:101D04000030CA000030C9000030C800CA17CB0137
:101D1400932E0030CB000030CA000030C9000030E0
:101D2400C800560855020318BB2E541F9D2E803040
:101D3400CC004C08D4065608D7005508D6005708DE
:101D4400D5004408D7004808C4005708C80045080F
:101D5400D7004908C5005708C9004608D7004A08F3
:101D6400C6005708CA004708D7004B08C7005708E1
:101D7400CB00D7015508CC00CD014D08CF00560843
:101D84004C02CE00031CCF034F08803AD0008030B1
:101D94005002031DCF2E1A304E02031CFD2E2000CC
:101DA40047084604450444040319DA2E0130DB2EA7
:101DB4000030D7000030C7000030C6000030C50036
:101DC4000030C4005508D600022F571CED2E57369C
:101DD4000138D700EF2E0310D70C4418D717013061
:101DE400CC00C737C60CC50CC40CCC0BF32E013089
:101DF400CC004C08D607200055085602031CE72ED9
:101E0400541B312F5608031D102F0030C70000301B
:101E1400C6000030C5000030C40008004808C407EC
:101E24004908C53D4A08C63D4B08C73D471CAB2F72
:101E3400571C202F57360138D700222F0310D70CF8
:101E44004418D7170130CC00C737C60CC50CC40CD6
:101E5400CC0B262F0130CC004C08D607AB2F4708FB
:101E6400803ACC004B08803A4C02031D432F4A08A9
:101E74004602031D432F49084502031D432F48080A
:101E8400440203187B2FFF30CC00FF30CD00FF301D
:101E9400CE00FF30CF0044084802D0004508493B3B
:101EA400D10046084A3BD20047084B3BD3005008B8
:101EB400CC075108CD3D5208CE3D5308CF3D4F08C5
:101EC400C7004E08C6004D08C5004C08C400803049
:101ED400CC004C08D406D709D70A5708031D832F12
:101EE4000130C4070030C53D0030C63D0030C73D59
:101EF400832F4808C4024908C53B4A08C63B4B081F
:101F0400C73B4708460445044404031DA92F57084A
:101F1400031DA92F0030C7000030C6000030C500E3
:101F24000030C40008000130C435C50DC60DC70D0E
:101F3400890B962FD71B4414571CA22F0314A32FCD
:101F44000310D70D56080319A92F0130D602C61F56
:101F5400952FD501D71FB62F57087F390319441879
:101F6400B42FB62FD501D50A55080319E22F013035
:101F7400C4070030C53D0030C63D0030C73D471C96
:101F8400E22F4408CC004508CD004608CE0047089F
:101F9400CF000130D000CF37CE0CCD0CCC0CD00B01
:101FA400CD2F4F08C7004E08C6004D08C5004C0889
:101FB400C400560A0319E22F0130CC004C08D6079E
:101FC400560A031D5608031DF22F0030C7000030C7
:101FD400C6000030C5000030C40056080319D401FF
:101FE400561CF62FC617FA2F7F30CC004C08C605B6
:101FF4005636C700D41F0800C71708004134003400
:1020040044340034473400344A3400344D3400340A
:1020140080342534C434333416342D34783439348C
:1020240010340034A8343A340A340034013400340F
:0C20340002340034033400340334003460
:020000040001F9
:08000000FF3FFF3FFF3FFF3F00
:04000E00E43FFF1EAE
:00000001FF
