:1000000080312328643402347E1480318B1A0B1D16
:100010000D2897312427803121280B1F212821000A
:10002000911C19282000911C19289631F526803141
:1000300021282100111C21282000111C2128973182
:1000400075277E100900803125282100803102208B
:100050008031DD00803103208031DE0022008831D4
:1000600000208031D800883101208031D900F6018C
:10007000F701F801F9012000EF01C33084000030DE
:1000800085000E3097311E272200D201D301D40102
:10009000D501D601D7017E1020008731522F2000D4
:1000A0005F0880392100A00020005F352100A600F4
:1000B0002000DE1F5D2821002614210026080319D8
:1000C0007028260A031D6D2800302000DF00003054
:1000D000DE000030DD000030DC002000DE17792873
:1000E00000302000DF000030DE000030DD00003096
:1000F000DC0063088039E40064082100A0062000C9
:1001000063352100A1002000E21F8828210021146E
:100110002100210803199B28210A031D982800307B
:100120002000E3000030E2000030E1000030E00099
:100130002000E217A42800302000E3000030E20095
:100140000030E1000030E00021002108031D2608F6
:10015000031DB42800302000DF000030DE00003036
:10016000DD000030DC00080020005C08F4006208BC
:1001700088315920803175082100AC007408AB002B
:100180002B082000E400E501E601E70167082100F3
:10019000A500200066082100A400200065082100B9
:1001A000A300200064082100A2002C082000E40025
:1001B000E501E601E70167082100AA0020006608C2
:1001C0002100A900200065082100A8002000640883
:1001D0002100A70020005D08F40061088831592043
:1001E000803175082100AC007408AB002B0820009A
:1001F000E400E501E601E70164082100A207200010
:1002000065082100A33D200066082100A43D2000D0
:1002100067082100A53D2C082000E400E501E60167
:10022000E70164082100A707200065082100A83D18
:10023000200066082100A93D200067082100AA3D92
:1002400020005E08F400600888315920803175086C
:100250002100AC007408AB002B082000E400E5018D
:10026000E601E70164082100A207200065082100DB
:10027000A33D200066082100A43D2000670821005E
:10028000A53D2C082000E400E501E601E701640833
:100290002100A707200065082100A83D200066086E
:1002A0002100A93D200067082100AA3D0830A235A1
:1002B000A30DA40DA50D890B572920005D08F4009E
:1002C000600888315920803175082100AC0074081D
:1002D000AB002B08A2072C08A33D0030A43DA53D90
:1002E00020005C08F40061088831592080317508CD
:1002F0002100AC007408AB002B08A2072C08A33D1A
:100300000030A43DA53D0830A235A30DA40DA50DD8
:10031000890B842920005C08F4006008883159208A
:10032000803175082100AC007408AB002B08A207CF
:100330002C08A33D0030A43DA53D20005D08F4003D
:10034000620888315920803175082100AC0074089A
:10035000AB002B08A7072C08A83D0030A93DAA3DFB
:1003600020005E08F400610888315920803175084A
:100370002100AC007408AB002B08A7072C08A83D8F
:100380000030A93DAA3D20005E08F40062088831D3
:100390005920803175082100AC007408AB002B088F
:1003A0002000E40021002C082000E500E601E70120
:1003B0000830E435E50DE60DE70D890BD929640811
:1003C0002100A707200065082100A83D200066083D
:1003D0002100A93D200067082100AA3D2208200035
:1003E000E400210023082000E5002100240820006B
:1003F000E600210025082000E7001830E736E60C6B
:10040000E50CE40C890BFE2964082100A7072000F5
:1004100065082100A83D200066082100A93D2000B4
:1004200067082100AA3D0830A235A30DA40DA50D33
:10043000890B142A260821072000E400E501E50DB8
:100440006408823E2100AB00FF302000653D2100A2
:10045000AC00A91B402A0130A735A80DA90DAA0D93
:10046000890B2C2AA51B27140130A235A30DA40D3E
:10047000A50D890B352AFF30AB07FF30AC3D292A8B
:10048000A101A51F622AFF3022052000E400FF30F1
:10049000210023052000E500FF3021002405200075
:1004A000E6007F30210025052000E700670866048C
:1004B00065046404031D5F2A2100271C622A2100B1
:1004C000A101A10A21080319992A0130A7070030C8
:1004D000A83D0030A93D0030AA3D2A1C992A2708D2
:1004E0002000E400210028082000E5002100290860
:1004F0002000E60021002A082000E7000130E80083
:10050000E737E60CE50CE40CE80B802A67082100CD
:10051000AA00200066082100A9002000650821002B
:10052000A800200064082100A7000130AB070030BC
:10053000AC3D2C08803A2000E40080306402031DAA
:10054000A42AFF3021002B02031CB02A7F30210097
:10055000AA008030A9000030A8000030A700D82AE7
:1005600021002C08803A2000E40080306402031D42
:10057000BC2A013021002B020318C92A00302100B7
:10058000AA000030A9000030A8000030A700A00198
:10059000D82A21002B08A600FF30A705FF30A805A8
:1005A0007F30A9050030AA052618A9172636AA000B
:1005B00020082000E40064082100AA042A08200082
:1005C000DF00210029082000DE002100280820008B
:1005D000DD00210027082000DC00080006308831FB
:1005E0000220823175082200CD007408CC003B3017
:1005F0002000DF00A030DE002830DD000A30DC0003
:1006000022004C082000A00022004D082000A1007C
:10061000A201A30100308A31BE22823120002308CA
:10062000E3002208E2002108E1002008E000803118
:100630004F20823120005F082200A30020005E08C6
:100640002200A20020005D082200A10020005C081A
:100650002200A0004630A7001C30A6004030A500B4
:100660000030A4004030AB00A030AA000030A90048
:100670000030A80027082000DF0022002608200004
:10068000DE00220025082000DD00220024082000D2
:10069000DC00BF30CB008030CA000030C900003021
:1006A000C800220023082000B100220022082000F8
:1006B000B000220021082000AF0022002008200006
:1006C000AE0022002B082000B50022002A082000DE
:1006D000B400220029082000B300220028082000CE
:1006E000B2008C31DE24823120003108CF00300886
:1006F000CE002F08CD002E08CC008E314E26823140
:1007000020004B08E3004A08E2004908E1004808DD
:10071000E00080314F20823120005F082200AF00CE
:1007200020005E082200AE0020005D082200AD001F
:1007300020005C082200AC002F082000EC00220002
:100740002E082000EB0022002D082000EA002200E5
:100750002C082000E90085315A25823120006C08E0
:100760002200D10020006B082200D00020006A087F
:100770002200CF00200069082200CE003330200084
:10078000DF00C430DE002530DD008030DC002200D8
:1007900051082000E300220050082000E20022005F
:1007A0004F082000E10022004E082000E0008031C8
:1007B0004F20823120005F082200C30020005E0825
:1007C0002200C20020005D082200C10020005C0859
:1007D0002200C00051082000DF0022005008200045
:1007E000DE0022004F082000DD0022004E0820001D
:1007F000DC00220043082000E30022004208200021
:10080000E200220041082000E10022004008200010
:10081000E00080314F20823120005F082200C700B5
:1008200020005E082200C60020005D082200C500EE
:1008300020005C082200C4003A302000CB00A83021
:10084000CA000030C9001030C8003930DF007830ED
:10085000DE002D30DD001630DC00220051082000C3
:10086000E300220050082000E20022004F08200090
:10087000E10022004E082000E00080314F2082314C
:1008800020005F08CF005E08CE005D08CD005C0848
:10089000CC008E314E26823120004B082200CB0046
:1008A00020004A082200CA00200049082200C9008E
:1008B000200048082200C80051082000DF00220064
:1008C00050082000DE0022004F082000DD0022003A
:1008D0004E082000DC00220047082000E300220030
:1008E00046082000E200220045082000E100220026
:1008F00044082000E00080314F20823120005F0852
:10090000CB005E08CA005D08C9005C08C800220070
:100910004B082000CF0022004A082000CE00220011
:1009200049082000CD00220048082000CC008E316C
:100930004E26823120004B082200B30020004A08D6
:100940002200B200200049082200B100200048081F
:100950002200B00033082000B1002200320820003D
:10096000B000220031082000AF0022003008200033
:10097000AE003F30B5008030B4000030B30000302E
:10098000B2008C31DE248231200031082200B70011
:10099000200030082200B60020002F082200B500F9
:1009A00020002E082200B400C3302000CB00883085
:1009B000CA009330C9003330C80022003708200035
:1009C000CF00220036082000CE002200350820008B
:1009D000CD00220034082000CC008E314E2682311A
:1009E00020004B082200BB0020004A082200BA0069
:1009F000200049082200B900200048082200B80061
:100A000042302000CB000030CA000030C900003066
:100A1000C8003F30DF00E630DE006630DD006630C3
:100A2000DC0022003B082000E30022003A082000FE
:100A3000E200220039082000E100220038082000EE
:100A4000E00080314F20823120005F08CF005E0837
:100A5000CE005D08CD005C08CC008E314E26823180
:100A600020004B082200BF0020004A082200BE00E0
:100A7000200049082200BD00200048082200BC00D8
:100A80003F082000A30022003E082000A200220010
:100A90003D082000A10022003C082000A000893170
:100AA0007721200021082200D30020002008220006
:100AB000D200080000302000A3000030A200003067
:100AC000A1000030A0006C08A7006B08A6006A080F
:100AD000A5006908A4008A3142228531031C7A2DC1
:100AE00000302000EC000030EB000030EA00003065
:100AF000E900080000302100B4000030B3000030ED
:100B0000B2000030B1003F302000A300C030A2008E
:100B10000030A1000030A0006C08A7006B08A60000
:100B20006A08A5006908A4008A31422285310318A9
:100B3000E12D40302000B1002D30B000F830AF0082
:100B40005430AE006C08B5006B08B4006A08B300FE
:100B50006908B2008C31DE24853120003108EC00B8
:100B60003008EB002F08EA002E08E9003F30CB00E8
:100B70008030CA000030C9000030C80021003408AD
:100B80002000CF00210033082000CE0021003208D1
:100B90002000CD00210031082000CC008E314E26EF
:100BA000853120004B082100B40020004A082100B4
:100BB000B300200049082100B200200048082100AD
:100BC000822D3F302000DF008030DE000030DD006D
:100BD0000030DC006C08E3006B08E2006A08E1000A
:100BE0006908E00088313A20853120005F08EC0078
:100BF0005E08EB005D08EA005C08E9006C08210073
:100C0000BE0020006B082100BD0020006A08210002
:100C1000BC00200069082100BB000030B800003093
:100C2000B7000030B6000030B5000130B900003028
:100C3000BA0033302000A300D630A200BF30A1009C
:100C40009530A00021003E082000A70021003D08AB
:100C50002000A60021003C082000A50021003B0840
:100C60002000A4008A31422285310318092F210077
:100C70003E082000CB0021003D082000CA002100D2
:100C80003C082000C90021003B082000C8002100CA
:100C900038082000CF00210037082000CE002100B6
:100CA00036082000CD00210035082000CC008E3110
:100CB0004E26853120004B082100B80020004A084C
:100CC0002100B700200049082100B6002000480894
:100CD0002100B5000130B9070030BA3D3908FF3EA8
:100CE0002000A000FF3021003A3D2000A100A20119
:100CF000A11BA2032208A30001308A31BE22853144
:100D000020002308E3002208E2002108E100200877
:100D1000E0006C08A3006B08A2006A08A100690843
:100D2000A00097314A27853120002308DF002208E0
:100D3000DE002108DD002008DC0080314F208531F5
:100D400020005F08B5005E08B4005D08B3005C08D1
:100D5000B200210039082000A00021003A0820003C
:100D6000A100890D893B8909A200A30001308A31C5
:100D7000BE22853120002308B1002208B0002108DE
:100D8000AF002008AE008C31DE2485312000310810
:100D90002100B000200030082100AF0020002F0803
:100DA0002100AE0020002E082100AD0030082000F8
:100DB000DF0021002F082000DE0021002E08200087
:100DC000DD0021002D082000DC0021003E0820006D
:100DD000E30021003D082000E20021003C08200043
:100DE000E10021003B082000E00080314F208531E8
:100DF00020005F082100BE0020005E082100BD0029
:100E000020005D082100BC0020005C082100BB0020
:100E1000192E21003E082000A30021003D082000DB
:100E2000A20021003C082000A10021003B08200076
:100E3000A000B330A700D630A600BF30A500953083
:100E4000A4008A3142228531031C372E2100380844
:100E50002000CB00210037082000CA0021003608FE
:100E60002000C900210035082000C80021003408F6
:100E70002000CF00210033082000CE0021003208DE
:100E80002000CD00210031082000CC008E314E26FC
:100E900020004B08EC004A08EB004908EA0048082B
:100EA000E90008009731B52787310B302000EE00AC
:100EB0002630ED005D30890B5B2FED0B5B2FEE0BC9
:100EC0005B2F00328B170B175230F4000B30F500FC
:100ED00097310C278731BD30F4000830F500973189
:100EE00012278731E330F4000830F50097311827D6
:100EF00087310A308731F32787312100C20019304A
:100F00004202031C872F1F304202031C8F2F033025
:100F1000F6000030F7002200D701D70A962F4208CA
:100F2000E73EF600FF3003180030F70064002200AF
:100F3000560803199F2FD6018231EE2287312200F5
:100F400055080319A72FD5018C31142487312200AD
:100F500054080319962FD40157080319C62F760891
:100F6000193E2100C1000A308731F3278731210063
:100F7000C00040084106031DC02F2200D701C62F24
:100F80004108F4000A3088319A20873120006F0828
:100F90002100BF0001302200D8070030D93D2000D9
:100FA0006F080030220059023D3003195802031C1B
:100FB000DD2F3D30D8000030D9008931D92187316B
:100FC00021003F0820006F060319E92F2200D801F5
:100FD000D90120006F080319F02F22000C11962F61
:100FE00022000C15962FF4007408230091001513AD
:100FF00095131514000000000000230013080800DA
:101000003C3400342000A1002108A000A00DA00D58
:1010100021001D08200020068339200621009D00A4
:101020001D140330890B1228000021009D149D1807
:1010300017281C08F5001B08F4000800F401F5014E
:101040002000201C27282208F4072308F53D013042
:10105000A235A30D890B28280130A136A00C890BDD
:101060002D2820082104031D20287508A1007408DC
:10107000A000080080302000DF066308CB00620873
:10108000CA006108C9006008C8005F08CF005E0898
:10109000CE005D08CD005C08CC008E314E262000CD
:1010A0004B08DF004A08DE004908DD004808DC0084
:1010B00008002000A600A201A3017408A000A1015D
:1010C0002008A4002108A500261C6A282408A207DD
:1010D0002508A33D0130A435A50D890B6B2803100D
:1010E000A60C2608031D64282308F5002208F40036
:1010F0000800083023009F0080309D0024309E00AF
:1011000010309B009C010030F4000030F500973156
:10111000002788310030F4000030F50097310627B1
:1011200088310030F4000030F5009631FA262100B5
:10113000D00108002000A0002008230091007408BE
:10114000930095131513151500308B1B01302000EB
:10115000A1008B13553023009600AA3096009514F9
:10116000B228000023009518B12815112000210C89
:10117000031C8B1303188B1708000130F000700854
:10118000F8070130F00070082100DD075E085D02FD
:10119000031CCC285E08DD0003307802031CD32832
:1011A0002200D601D60A05307802031CDA28220074
:1011B000D501D50A0A307802031C08002200D401A8
:1011C000D40AF80108000130F00070082100CC07B3
:1011D0005D08031DED288C10CC015E085D0203182C
:1011E00023294B08031917294C08031D0229031052
:1011F00022008C1C0314031C002922008C140229D9
:1012000022008C10023021004C06031D122903100D
:1012100022008C1C0314031C102922008C14122998
:1012200022008C10033021004C060319CC0103105E
:1012300022008C1C0314031C202922008C1408009B
:1012400022008C1008008C1408002000AA01A51FA1
:101250003029A409A509A40A0319A50AAA01AA0A02
:10126000A71F3B29A609A709A60A0319A70A013047
:10127000A8002808AA06AB01AC012408250403191C
:101280006A29A901A90AA51B4F290130A435A50D7A
:10129000890B46290130A8002808A90743290130F5
:1012A000AB35AC0D890B502925082702031D5A299F
:1012B00024082602031C61292408A6022508A73B4E
:1012C0002B140130A536A40C890B62290130A90228
:1012D000031D4F292A0803197229AB09AC09AB0A6F
:1012E0000319AC0A2C08A5002B08A4000800031061
:1012F0002000220D230DF5007508031D88290030FC
:10130000A3000030A2000030A1000030A0000800BF
:101310002008A4002108A5002208A6002308A70091
:101320001F30A736A60CA50CA40C890B9129240804
:10133000F400A217FF30A005FF30A105FF30A20581
:101340000030A3059630F502F51FB9297508803ADB
:10135000973E031C7F290130A336A20CA10CA00CE0
:10136000890BAC290130A4002408F5070319CA2908
:10137000AB292030750203187F2975080319CA2983
:101380000130A035A10DA20DA30D890BC12901309B
:10139000F502BD29740803190800A009A109A209D2
:1013A000A309A00A0319A10A0319A20A0319A30A8F
:1013B0000800760877040319E629E929003022009D
:1013C00059023D3003195802031C102A2000EF0176
:1013D000080077088500760884008435850D003084
:1013E00084071830053D80388500003F2000A000AC
:1013F000013FA1002008023EA2000030213DA300D1
:101400002308803AA40022005308803A20002402D6
:10141000031D0E2A2200520820002202031CDE298E
:1014200077088500760884008435850D00308407B0
:101430001830053D80388500003F2000A000013FA6
:10144000A1002008FF3EA200FF30213DA3002200A2
:101450005308803A2000A4002308803A2402031D88
:10146000342A220822005202031808000030220009
:1014700059023D3003195802031C08002000EF01F7
:10148000EF0A0800003020002005A80000302105E8
:10149000A90080302205AA007F302305AB002B086D
:1014A0002A0429042804031D5D2A0030A30000300B
:1014B000A2000030A1000030A00000302405A800E8
:1014C00000302505A90080302605AA007F302705B9
:1014D000AB002B082A0429042804031D772A0030B6
:1014E000A7000030A6000030A5000030A400A31F14
:1014F000912A0030A8000030A9000030AA008030F6
:10150000AB002008A8022108A93B2208AA3B230817
:10151000AB3B2B08A3002A08A2002908A100280839
:10152000A000A71FAB2A0030A8000030A90000309F
:10153000AA008030AB002408A8022508A93B260891
:10154000AA3B2708AB3B2B08A7002A08A6002908BE
:10155000A5002808A4008030A3068030A70627082D
:101560002302031D080026082202031D0800250887
:101570002102031D08002408200208002000A80002
:101580002808031DA31FD42A2009AA002109AB00A3
:101590002209AC002309AD00AA0A0319AB0A0319FA
:1015A000AC0A0319AD0ADC2A2308AD002208AC00FE
:1015B0002108AB002008AA002308220421042004EB
:1015C000031DEB2A0030A3000030A2000030A10070
:1015D0000030A00008009630A900FE302D05031948
:1015E000102B0130A4002408A9070130AD36AC0C43
:1015F000AB0CAA0C890BF62AED2A0130A4002408B2
:10160000A9070130AA070030AB3D0030AC3D0030E7
:10161000AD3D0130AD36AC0CAB0CAA0C890B0A2BDE
:10162000FF302D050319222BFD2A02302902031C4D
:10163000242B0130A9020130AA35AB0DAC0DAD0D44
:10164000890B1C2BAC1F152B29182E2BFF30AA053C
:10165000FF30AB057F30AC05FF30AD050310A90CA2
:101660002908A400A501A601A7011830A435A50DDD
:10167000A60DA70D890B362B2408AA042508AB0458
:101680002608AC042708AD042808031DA31F492B16
:10169000AD172D08A3002C08A2002B08A1002A08D2
:1016A000A0000800022C003020000C1A0130F200CB
:1016B00000300D180130F30021000C120D107308DA
:1016C000031D782B4E080319782B7708803AF10018
:1016D00080307102031D6E2B01307602031C742BC7
:1016E000FF30F607FF30F73D2100DD01CB01CB0ACB
:1016F0007308CE007208031D922B4F080319922B1A
:101700007708803AF10080307102031D892B053083
:10171000760203188F2B0130F6070030F73D2100C9
:10172000DD01CB017208CF000130C5000030C600DA
:1017300022008D148C117708803AF10080307102FC
:10174000031DA42B02307602031CB82B22000C12BE
:101750007708803AF10080307102031DB12B03300D
:101760007602031CB62B22000D10BB2B2200BA2BD5
:1017700022000C160D140D1508000230C5000030B3
:10178000C60022008D108C157708803AF100803059
:101790007102031DCD2B04307602031CE22B2200C4
:1017A0000D107708803AF10080307102031DDA2BAA
:1017B00005307602031CDF2B22000C1208002200E9
:1017C0000C16080022000C160D140800C501C601F5
:1017D00022008D108C1121000C160D147708803A10
:1017E000F10080307102031DF72B01307602031CDB
:1017F000FC2B22000D11080022000D150800C50168
:10180000C601080021004608003A0319082CFF2BE6
:101810004508003A0319532B013A0319BD2B033A2B
:101820000319E62BFF2B080064302000A4000030D1
:10183000A500220053082000A70022005208200023
:10184000A600893125218C3120002508B600240806
:10185000B5000A30A4000030A5003608A100350804
:10186000A0009C30A200FF30A30088311E208C31E4
:101870002200520820002007A60022005308200062
:10188000213DA700893125218C3120002508B40095
:101890002408B3003608A1003508A0009C30A2003F
:1018A000FF30A30088311E208C3120002008AD00BD
:1018B0002108AE003408A1003308A000F630A200D1
:1018C000FF30A30088311E208C31200020082D0716
:1018D000AF0021082E3DB0002200520820002F0743
:1018E000B100220053082000303DB200543097313F
:1018F00042278C313A30973142278C312200D31F56
:10190000852C2D30973142278C3120003608803AC3
:10191000AD0080302D02031D8F2C01303502031CD9
:10192000972C20003508303E973142278C3120001B
:101930003408803AAD0080302D02031DA12C013007
:101940003302031CA92C20003308303E9731422774
:101950008C3120003108303E973142278C3146309F
:10196000973142278C310930973142278C314D30E5
:10197000973142278C313A30973142278C317608A3
:10198000303E973142278C310930973142278C31D4
:101990004830973142278C313A30973142278C3189
:1019A00020006F08303E973142278C310D3097313F
:1019B00042278C310A309731422708002000350831
:1019C0008039BF003535C600B41B461446080319DC
:1019D000F72C460A031DF42C0030B5000030B4008B
:1019E0000030B3000030B200B417B501FF2C003056
:1019F000B5000030B4000030B3000030B200310850
:101A00008039B6003608BF063135C700B01B471411
:101A100047080319192D470A031D162D0030B10080
:101A20000030B0000030AF000030AE00B017B101A0
:101A3000212D0030B1000030B0000030AF00003088
:101A4000AE00310830042F042E04031D402D003059
:101A5000B5000030B4000030B3000030B200803078
:101A6000B4047F30B5043F08B6003608B504350825
:101A7000B1003408B0003308AF003208AE000800EF
:101A80004608031D4C2D0030B1000030B00000307E
:101A9000AF000030AE0008004608B600B7013708B6
:101AA000B90047083602B800031CB90338087F3E66
:101AB000C0000030393DC1003508BE003408BD000B
:101AC0003308BC003208BB000030B5000030B40061
:101AD0000030B3000030B2000030C5000030C40058
:101AE0000030C3000030C200C7011A30470203189B
:101AF000B12D47080319932D0130BB35BC0DBD0D29
:101B0000BE0D890B7D2D0130B235B30DB40DB50D71
:101B1000890B842DC51B32140130C235C30DC40D91
:101B2000C50D890B8D2D31083E02031DA12D3008F6
:101B30003D02031DA12D2F083C02031DA12D2E08DF
:101B40003B02031CAC2D45172E08BB022F08BC3BE3
:101B50003008BD3B3108BE3B0130B6003608C70730
:101B6000752D3E083D043C043B04031D4214B41B88
:101B7000CE2D0130B235B30DB40DB50D890BBA2D94
:101B8000C51B32140130C235C30DC40DC50D890B00
:101B9000C32DFF30C007FF30C13DB72DC701C51FA2
:101BA000E72DFF304205B600FF304305B700FF3098
:101BB0004405B8007F304505B900390838043704BA
:101BC000360403193218E52DE72DC701C70A470867
:101BD0000319102E0130B2070030B33D0030B43D80
:101BE0000030B53D351C102E3208B6003308B70062
:101BF0003408B8003508B9000130BA00B937B80C5C
:101C0000B70CB60CBA0BFE2D3908B5003808B40075
:101C10003708B3003608B2000130C0070030C13DBC
:101C20004108803AB60080303602031D192EFF307D
:101C30004002031C282EFF302000C0000030C100ED
:101C40000030B5000030B4000030B3000030B20006
:101C500020004108803AB60080303602031D322E43
:101C6000013040020318402E2000C001C1010030A5
:101C7000B5000030B4000030B3000030B200BF0146
:101C800020004008C600461C472EB4174B2E7F305C
:101C9000B6003608B4054636B500332D20004B0893
:101CA0008039D8004B35DA00CA1B5A145A08031978
:101CB000672E5A0A031D642E0030CB000030CA0084
:101CC0000030C9000030C800CA17CB016F2E0030A9
:101CD000CB000030CA000030C9000030C8004F08F7
:101CE0008039D90059085806031D58174F35D900B7
:101CF000CE1B5914590803198B2E590A031D882E1F
:101D00000030CF000030CE000030CD000030CC00DD
:101D1000CE17CF01932E0030CF000030CE00003020
:101D2000CD000030CC005A0859020318BB2E581FB2
:101D30009D2E8030D0005008D8065A08DB00590884
:101D4000DA005B08D9004808DB004C08C8005B08D3
:101D5000CC004908DB004D08C9005B08CD004A08EB
:101D6000DB004E08CA005B08CE004B08DB004F08C2
:101D7000CB005B08CF00DB015908D000D10151082E
:101D8000D3005A085002D200031CD3035308803AF0
:101D9000D40080305402031DCF2E1A305202031C8F
:101DA000FD2E20004B084A04490448040319DA2E8A
:101DB0000130DB2E0030DB000030CB000030CA00E9
:101DC0000030C9000030C8005908DA00022F5B1C3F
:101DD000ED2E5B360138DB00EF2E0310DB0C4818CC
:101DE000DB170130D000CB37CA0CC90CC80CD00BA4
:101DF000F32E0130D0005008DA07200059085A02AB
:101E0000031CE72E581B312F5A08031D102F0030DA
:101E1000CB000030CA000030C9000030C800080004
:101E20004C08C8074D08C93D4E08CA3D4F08CB3D78
:101E30004B1CAB2F5B1C202F5B360138DB00222FA5
:101E40000310DB0C4818DB170130D000CB37CA0C6D
:101E5000C90CC80CD00B262F0130D0005008DA076F
:101E6000AB2F4B08803AD0004F08803A5002031D38
:101E7000432F4E084A02031D432F4D084902031DFC
:101E8000432F4C08480203187B2FFF30D000FF304F
:101E9000D100FF30D200FF30D30048084C02D400FC
:101EA00049084D3BD5004A084E3BD6004B084F3BF6
:101EB000D7005408D0075508D13D5608D23D5708E1
:101EC000D33D5308CB005208CA005108C90050083E
:101ED000C8008030D0005008D806DB09DB0A5B0858
:101EE000031D832F0130C8070030C93D0030CA3DB3
:101EF0000030CB3D832F4C08C8024D08C93B4E082B
:101F0000CA3B4F08CB3B4B084A0449044804031D15
:101F1000A92F5B08031DA92F0030CB000030CA0099
:101F20000030C9000030C80008000130C835C90DB4
:101F3000CA0DCB0D890B962FDB1B48145B1CA22FFF
:101F40000314A32F0310DB0D5A080319A92F013026
:101F5000DA02CA1F952FD901DB1FB62F5B087F3924
:101F600003194818B42FB62FD901D90A59080319F3
:101F7000E22F0130C8070030C93D0030CA3D0030B3
:101F8000CB3D4B1CE22F4808D0004908D1004A083D
:101F9000D2004B08D3000130D400D337D20CD10C7F
:101FA000D00CD40BCD2F5308CB005208CA005108D7
:101FB000C9005008C8005A0A0319E22F0130D000A6
:101FC0005008DA075A0A031D5A08031DF22F003081
:101FD000CB000030CA000030C9000030C8005A08E9
:101FE0000319D8015A1CF62FCA17FA2F7F30D000D8
:101FF0005008CA055A36CB00D81F0800CB17080076
:102DDC0008000800080016302100970008002000A9
:102DEC00911097316A27080075082100D4007408E7
:102DFC00D300080075082100D8007408D70008001B
:102E0C0075082100D6007408D5000800750821004B
:102E1C00DC007408DB00080075082100DA00740877
:102E2C00D900080075082100D2007408D1000800F0
:102E3C00640080010131890B1F2F00340B117908BC
:102E4C00200095009731542708007030210099001C
:102E5C009801220096010800F0002000111E332F6B
:102E6C00700823009A000800A03021009E009B01EE
:102E7C009C0101309D000800F4002000111E432F1E
:102E8C00740823009A00080020002308220421045F
:102E9C002004031908008030A306080021005B08F9
:102EAC005C04031908005C088A005B080A0097316F
:102EBC000800210059085A04031908005A088A000E
:102ECC0059080A00973108002100510852040319CF
:102EDC00080052088A0051080A00973108002000A7
:102EEC00111021004808F1004708F00097318227A3
:102EFC00973197315F2708002000181D8C2F181070
:102F0C007108970070089600181408007108970053
:102F1C00700896000800033020009B009A01911065
:102F2C0021009114F030F4001630F5009731182779
:102F3C007E3020009C00080021001508C03917388D
:102F4C009500F83020009500F830F9000B118B1625
:102F5C00EE30F4001630F50097310C27080097314D
:102F6C00E627973197312B2797319631F1269731F8
:102F7C0097313A2797319731912797319731CD2750
:102F8C0097319731A227973188317920080020009A
:102F9C0099019E30970058309600111017082100A7
:102FAC00C800200016082100C7001114EF30F400EF
:102FBC001630F500973112273130200098000800A8
:102FCC00043022008C000C308D00F33021008C007A
:102FDC00B1308D00903023008D0001308C00013019
:102FEC0024008D008C012100951322009D010130DD
:102FFC009E00080000340034413400344434003462
:10300C00473400344A3400344D3400348034253491
:10301C00C434333416342D34783439341034003409
:10302C00A8343A340A340034013400340234003405
:08303C000134003401340034BA
:020000040001F9
:08000000FF3FFF3FFF3FFF3F00
:04000E00FC3FFF1E96
:10E0000000000100020003000400050006000700F4
:10E01000080009000A000B000C000D000E000F00A4
:00000001FF
