:0400000080312628FD
:100008007E1480318B1E09280A2812280B1D0D2802
:100018000E2812288031DA20803124280B1F152859
:10002800162824282100111C1A281B2824282000FF
:10003800111C1F28202824288031332080312428AF
:100048007E10090080312828F001F101F201F30146
:10005800F401F501F6017E1020008031E928200026
:1000680011107308FA007208F9008031A820803155
:100078000130F0070030F13D003071020A300319F9
:100088007002031C482849284E288031B920803145
:10009800F001F1010800200099019E3097005830C6
:1000A800960011101708F3001608F2002100111429
:1000B800FF302000A2000030A3008031EF20803103
:1000C8003130200098000800043022008C004030B5
:1000D8008D00E13021008C00B0308D00FE3023000F
:1000E8008D001F308C00053024008D008C0121000C
:1000F800951322009D019E01080021001508C039B2
:1001080017389500B23020009500B230F6000B1178
:100118008B160030A2000130A3008031F520803119
:1001280008008031682080318031E22080318031C0
:10013800FB20803180314F2080318031D2208031C6
:1001480080318120803108002000181DAC28AD289E
:10015800B42818107A089700790896001814B82857
:100168007A089700790896000800200020082104E2
:100178000319BF28C028C52821088A0020080A00BA
:1001880080310800770878040319CB28CC28D128B7
:1001980078088A0077080A0080310800A03021001A
:1001A8009E009B019C0101309D0008000B11760800
:1001B800200095008031C620803108007030210071
:1001C800990098012200960108008031952080311D
:1001D800EC288031262820002308A1002208A0004E
:1001E800080020002308F8002208F700080016304D
:0A01F800210097000800080008002D
:020000040001F9
:08000000FF3FFF3FFF3FFF3F00
:04000E00E43FFF1EAE
:00000001FF
