:1000000080311928080001347E1480318B1A0B1DB1
:100010000D288A311322803117280B1F1728210041
:10002000111C17282000111C17288A313C227E1031
:10003000090080311B282200803103208031C60056
:10004000F801F901FA012000EE01EF012100B801E9
:10005000B901BA01BB01BC01BD01203084000130EF
:1000600085001C308A310D227E1020008B31EE2B52
:1000700006308A319922803174082300D100730838
:10008000D0003B302000D600A030D5002830D4006E
:100090000A30D30023005008F3005108F400F501A2
:1000A000F60100308D319825803176082000DA0085
:1000B0007508D9007408D8007308D7008231C322AC
:1000C0008031200056082300A3002000550823009B
:1000D000A200200054082300A100200053082300A0
:1000E000A0004630A7001C30A6004030A50000301C
:1000F000A4004030AB00A030AA000030A9000030BE
:10010000A80027082000D600230026082000D500DC
:10011000230025082000D400230024082000D30059
:10012000BF30C2008030C1000030C0000030BF00CE
:10013000230023082000A800230022082000A70095
:10014000230021082000A600230020082000A5008D
:1001500023002B082000AC0023002A082000AB005D
:10016000230029082000AA00230028082000A90055
:1001700086318526803120002808C6002708C50062
:100180002608C4002508C3008431D3248031200010
:100190004208DA004108D9004008D8003F08D700DB
:1001A0008231C3228031200056082300AF00200096
:1001B00055082300AE00200054082300AD002000A5
:1001C00053082300AC0045302000A8009C30A70055
:1001D0004030A6000030A50023002F082000AC000E
:1001E00023002E082000AB0023002D082000AA00C9
:1001F00023002C082000A9008631852680312000AC
:1002000028082300C300200027082300C200200084
:1002100026082300C100200025082300C000430851
:100220002100AB00230042082100AA00230041085E
:100230002100A900230040082100A8008E31E226F9
:10024000803121002B082300D50021002A0823003B
:10025000D400210029082300D3002100280823000E
:10026000D20034302000D6005830D500CF30D40032
:100270006C30D300230055082000DA002300540816
:100280002000D900230053082000D8002300520882
:100290002000D7008231C32280312000560823007D
:1002A000C700200055082300C60020005408230082
:1002B000C500200053082300C40055082000D600C4
:1002C000230054082000D500230053082000D40048
:1002D000230052082000D300230047082000DA0042
:1002E000230046082000D900230045082000D8003C
:1002F000230044082000D7008231C322803120002F
:1003000056082300CB00200055082300CA00200017
:1003100054082300C900200053082300C8003A30C5
:100320002000C2008430C1004830C000CB30BF0084
:100330003930D6007930D5006430D400D630D300BF
:10034000230055082000DA00230054082000D900BB
:10035000230053082000D800230052082000D700B3
:100360008231C322803120005608C6005508C500DE
:100370005408C4005308C3008431D32480312000C2
:1003800042082300CF00200041082300CE002000B7
:1003900040082300CD0020003F082300CC00550872
:1003A0002000D600230054082000D5002300530865
:1003B0002000D400230052082000D30023004B0863
:1003C0002000DA0023004A082000D9002300490851
:1003D0002000D800230048082000D7008231C32223
:1003E000803120005608C2005508C1005408C000E2
:1003F0005308BF0023004F082000C60023004E080A
:100400002000C50023004D082000C40023004C0834
:100410002000C3008431D32480312000420823000F
:10042000B300200041082300B20020004008230050
:10043000B10020003F082300B00033082000A800CE
:10044000230032082000A700230031082000A60066
:10045000230030082000A5003F30AC008030AB0006
:100460000030AA000030A9008631852680312000A6
:1004700028082300B700200027082300B60020002A
:1004800026082300B500200025082300B400C3304F
:100490002000C2008830C1009330C0003330BF005C
:1004A000230037082000C600230036082000C500BE
:1004B000230035082000C400230034082000C300B6
:1004C0008431D3248031200042082300BB00200067
:1004D00041082300BA00200040082300B900200092
:1004E0003F082300B80042302000C2000030C100A5
:1004F0000030C0000030BF003F30D600E630D500ED
:100500006630D4006630D30023003B082000DA00B8
:1005100023003A082000D900230039082000D80021
:10052000230038082000D7008231C3228031200008
:100530005608C6005508C5005408C4005308C30037
:100540008431D3248031200042082300BF002000E2
:1005500041082300BE00200040082300BD00200009
:100560003F082300BC003F08F6003E08F5003D08A8
:10057000F4003C08F3008C31A32474082100BB0074
:100580007308BA000800200056088039E00056358C
:10059000E600D51B661466080319DB2A660A031DEC
:1005A000D92A0030D6000030D5000030D400003009
:1005B000D300D517E32A0030D6000030D500003034
:1005C000D4000030D3005A088039DB005B08E00615
:1005D0005A35E100D91B611461080319FC2A610A2C
:1005E000031DFA2A0030DA000030D9000030D800AC
:1005F0000030D700D917042B0030DA000030D900C2
:100600000030D8000030D7006108031D6608031DC4
:10061000122B0030D6000030D5000030D40000305E
:10062000D30008005308F30059088B312623823188
:1006300074082000EC007308EB006B08DB00DC01A1
:10064000DD01DE015E08E5005D08E4005C08E30012
:100650005B08E2006C08DB00DC01DD01DE015E0806
:10066000EA005D08E9005C08E8005B08E700540860
:10067000F30058088B312623823174082000EC00E7
:100680007308EB006B08DB00DC01DD01DE015B08B9
:10069000E2075C08E33D5D08E43D5E08E53D6C086B
:1006A000DB00DC01DD01DE015B08E7075C08E83DFB
:1006B0005D08E93D5E08EA3D5508F30057088B31B7
:1006C0002623823174082000EC007308EB006B08CD
:1006D000DB00DC01DD01DE015B08E2075C08E33DD5
:1006E0005D08E43D5E08E53D6C08DB00DC01DD01F2
:1006F000DE015B08E7075C08E83D5D08E93D5E0850
:10070000EA3D0830E235E30DE40DE50D890B822B5F
:100710005408F30057088B312623823174082000D7
:10072000EC007308EB006B08E2076C08E33D003057
:10073000E43DE53D5308F30058088B312623823110
:1007400074082000EC007308EB006B08E2076C08EB
:10075000E33D0030E43DE53D0830E235E30DE40DD6
:10076000E50D890BAD2B5308F30057088B31262379
:10077000823174082000EC007308EB006B08E2077C
:100780006C08E33D0030E43DE53D5408F3005908B2
:100790008B312623823174082000EC007308EB00B3
:1007A0006B08E7076C08E83D0030E93DEA3D550875
:1007B000F30058088B312623823174082000EC00A6
:1007C0007308EB006B08E7076C08E83D0030E93D73
:1007D000EA3D5508F30059088B312623823174080D
:1007E0002000EC007308EB006B08DB006C08DC00F9
:1007F000DD01DE010830DB35DC0DDD0DDE0D890BA2
:10080000FB2B5B08E7075C08E83D5D08E93D5E08F7
:10081000EA3D6208DB006308DC006408DD0065086F
:10082000DE001830DE36DD0CDC0CDB0C890B122C04
:100830005B08E7075C08E83D5D08E93D5E08EA3DC6
:100840000830E235E30DE40DE50D890B212C660837
:100850006107DB00DC01DC0D5B08823EEB00FF3052
:100860005C3DEC00E91B492C0130E735E80DE90D52
:10087000EA0D890B352CE51B67140130E235E30DD9
:10088000E40DE50D890B3E2CFF30EB07FF30EC3D0E
:10089000322CE101E51F622CFF306205DB00FF30E6
:1008A0006305DC00FF306405DD007F306505DE0098
:1008B0005E085D045C045B0403196718602C622CFD
:1008C000E101E10A610803198B2C0130E7070030D0
:1008D000E83D0030E93D0030EA3D6A1C8B2C67089A
:1008E000DB006808DC006908DD006A08DE00013012
:1008F000DF00DE37DD0CDC0CDB0CDF0B792C5E0857
:10090000EA005D08E9005C08E8005B08E7000130E8
:10091000EB070030EC3D6C08803ADB0080305B0276
:10092000031D942CFF306B02031CA02C7F30200091
:10093000EA008030E9000030E8000030E700C62C13
:1009400020006C08803ADB0080305B02031DAA2C7B
:1009500001306B020318B72C00302000EA00003091
:10096000E9000030E8000030E700E001C62C20007C
:100970006B08E600FF30E705FF30E8057F30E9054A
:100980000030EA056618E9176636EA006008DB0001
:100990005B08EA046A08D6006908D5006808D40034
:1009A0006708D3000800200042088039CF00423594
:1009B000D100C11B511451080319EC2C510A031D1D
:1009C000E92C0030C2000030C1000030C00000300F
:1009D000BF00C117C201F42C0030C2000030C100BA
:1009E0000030C0000030BF0046088039D0005008F9
:1009F0004F06031D4F174635D000C51B5014500835
:100A00000319102D500A031D0D2D0030C6000030B3
:100A1000C5000030C4000030C300C517C601182D42
:100A20000030C6000030C5000030C4000030C300F4
:100A3000510850020318402D4F1F222D8030C7004F
:100A40004708CF065108D2005008D1005208D00004
:100A50003F08D2004308BF005208C3004008D2003C
:100A60004408C0005208C4004108D2004508C10033
:100A70005208C5004208D2004608C2005208C6000B
:100A8000D2015008C700C8014808CA0051084702EF
:100A9000C900031CCA034A08803ACB0080304B02CD
:100AA000031D542D1A304902031C822D20004208D8
:100AB000410440043F0403195F2D0130602D0030D4
:100AC000D2000030C2000030C1000030C000003051
:100AD000BF005008D100872D521C722D52360138AC
:100AE000D200742D0310D20C3F18D2170130C7006A
:100AF000C237C10CC00CBF0CC70B782D0130C7002A
:100B00004708D107200050085102031C6C2D4F1BD1
:100B1000B62D5108031D952D0030C2000030C100D4
:100B20000030C0000030BF0008004308BF07440881
:100B3000C03D4508C13D4608C23D421C302E521CF6
:100B4000A52D52360138D200A72D0310D20C3F1824
:100B5000D2170130C700C237C10CC00CBF0CC70B85
:100B6000AB2D0130C7004708D107302E4208803A2C
:100B7000C7004608803A4702031DC82D45084102B8
:100B8000031DC82D44084002031DC82D43083F0221
:100B90000318002EFF30C700FF30C800FF30C90027
:100BA000FF30CA003F084302CB004008443BCC0062
:100BB0004108453BCD004208463BCE004B08C707E5
:100BC0004C08C83D4D08C93D4E08CA3D4A08C20000
:100BD0004908C1004808C0004708BF008030C7006E
:100BE0004708CF06D209D20A5208031D082E013049
:100BF000BF070030C03D0030C13D0030C23D082E6F
:100C00004308BF024408C03B4508C13B4608C23BFD
:100C10004208410440043F04031D2E2E5208031DC8
:100C20002E2E0030C2000030C1000030C000003065
:100C3000BF0008000130BF35C00DC10DC20D890BCA
:100C40001B2ED21B3F14521C272E0314282E0310D8
:100C5000D20D510803192E2E0130D102C11F1A2EB8
:100C6000D001D21F3B2E52087F3903193F18392E6D
:100C70003B2ED001D00A50080319672E0130BF0760
:100C80000030C03D0030C13D0030C23D421C672EE7
:100C90003F08C7004008C8004108C9004208CA0010
:100CA0000130CB00CA37C90CC80CC70CCB0B522E75
:100CB0004A08C2004908C1004808C0004708BF00F0
:100CC000510A0319672E0130C7004708D107510A9E
:100CD000031D5108031D772E0030C2000030C100F3
:100CE0000030C0000030BF0051080319CF01511C73
:100CF0007B2EC1177F2E7F30C7004708C1055136B4
:100D0000C200CF1F0800C217080020002C0880393D
:100D1000B6002C35BD00AB1B3D143D0803199E2EBB
:100D20003D0A031D9B2E0030AC000030AB000030AC
:100D3000AA000030A900AB17AC01A62E0030AC0011
:100D40000030AB000030AA000030A900280880392C
:100D5000AD002D08B6062835BE00A71B3E143E0880
:100D60000319C02E3E0A031DBD2E0030A80000301E
:100D7000A7000030A6000030A500A717A801C82EC4
:100D80000030A8000030A7000030A6000030A50009
:100D90002808270426042504031DE72E0030AC0094
:100DA0000030AB000030AA000030A9008030AB0456
:100DB0007F30AC043608AD002D08AC042C08A80028
:100DC0002B08A7002A08A6002908A50008003D084E
:100DD000031DF32E0030A8000030A7000030A6004D
:100DE0000030A50008003D08AD00AE012E08B0009F
:100DF0003E082D02AF00031CB0032F087F3EB70052
:100E00000030303DB8002C08B5002B08B4002A088B
:100E1000B3002908B2000030AC000030AB00003055
:100E2000AA000030A9000030BC000030BB00003038
:100E3000BA000030B900BE011A303E020318582F24
:100E40003E0803193A2F0130B235B30DB40DB50D7C
:100E5000890B242F0130A935AA0DAB0DAC0D890BE0
:100E60002B2FBC1B29140130B935BA0DBB0DBC0D9D
:100E7000890B342F28083502031D482F2708340218
:100E8000031D482F26083302031D482F2508320270
:100E9000031C532F3C172508B2022608B33B270832
:100EA000B43B2808B53B0130AD002D08BE071C2F10
:100EB0003508340433043204031D3914AB1B752F79
:100EC0000130A935AA0DAB0DAC0D890B612FBC1BF0
:100ED00029140130B935BA0DBB0DBC0D890B6A2F31
:100EE000FF30B707FF30B83D5E2FBE01BC1F8E2F0D
:100EF000FF303905AD00FF303A05AE00FF303B054D
:100F0000AF007F303C05B00030082F042E042D04C4
:100F1000031929188C2F8E2FBE01BE0A3E08031913
:100F2000B72F0130A9070030AA3D0030AB3D00309B
:100F3000AC3D2C1CB72F2908AD002A08AE002B08A9
:100F4000AF002C08B0000130B100B037AF0CAE0CD0
:100F5000AD0CB10BA52F3008AC002F08AB002E084C
:100F6000AA002D08A9000130B7070030B83D3808A5
:100F7000803AAD0080302D02031DC02FFF303702B4
:100F8000031CCF2FFF302000B7000030B800003026
:100F9000AC000030AB000030AA000030A9002000F7
:100FA0003808803AAD0080302D02031DD92F013062
:100FB00037020318E72F2000B701B8010030AC005A
:100FC0000030AB000030AA000030A900B6012000BC
:100FD0003708BD003D1CEE2FAB17F22F7F30AD0060
:100FE0002D08AB053D36AC00DA2E22004208430442
:100FF0000319080043088A0042080A0087310800E4
:101000004134003444340034473400344A3400342A
:101010004D3400346C34CF3458343434D6346434E2
:1010200079343934CB34483484343A340A34003493
:101030000134003402340034033400340334003407
:1013D4000800163021009700080074082200BD00A0
:1013E4007308BC00080074082200C1007308C00020
:1013F400080074082200BF007308BE0008007408C7
:101404002200C5007308C400080074082200C30049
:101414007308C2000800640080010131890B0E2AA0
:1014240000340B117A08200095008A31312208001B
:101434007030210099009801220096010800A03024
:1014440021009E009B019C0101309D000800F300D7
:101454002000111E2A2A730823009A000800220083
:10146400440845040319080045088A0044080A0092
:101474008A3108002000111021003D08F1003C08C9
:10148400F0008A3149228A318731F527080020008B
:10149400181D532A18107108970070089600181424
:1014A40008007108970070089600080021001508CC
:1014B400C03917389500B23020009500B230FA00D8
:1014C4000B118B16EA30F3000930F4008A31012243
:1014D40008008A31B2228A318A311A228A3189314A
:1014E400EB218A318A3121228A318A3180228A3160
:1014F4008A3158228A318B31462308002000990111
:101504009E30970058309600111017082100BD0036
:10151400200016082100BC0011140230F300003032
:10152400F4008A3107223130200098000800F600C8
:101534007608F500F50DF50D21001D0875068339B3
:1015440075069D001D140330890BA62A0000210096
:101554009D149D18AB2A1C08F4001B08F300080016
:10156400043022008C0040308D00F13021008C00CA
:10157400B1308D00DE3023008D000F308C0005303B
:1015840024008D008C012100951322009D0101305F
:101594009E000800F700F501F60175087707F400CE
:1015A40074088600013087000108031908007508D3
:1015B4007707F400740886000130870001088A3137
:1015C40029228A310130F5070030F63DCF2A200068
:1015D400A001A101731CF32A75082000A007760856
:1015E400A13D0130F535F60D890BF42A0130F436AE
:1015F400F30C890BF92A73087404031DEC2A2000E8
:101604002108F4002008F30008000130F0007008FD
:101614002000EE0703306E02031C132B2200A801E6
:10162400A80A053020006E02031C1B2B2200A70110
:10163400A70A0A3020006E02031C08002200A6013B
:10164400A60A2000EE0108002000A400A001A101C8
:101654007308F500F6017508A2007608A300241C9F
:10166400372B2208A0072308A13D0130A235A30D82
:10167400890B382B0310A40C2408031D312B2108DB
:10168400F4002008F3000800083023009F00803095
:101694009D0024309E00CF309B009C010030F3005D
:1016A4000030F4008931F5218B310030F300003033
:1016B400F4008931FB218B310030F3000030F40059
:1016C4008931EF212200AB01080080302100A306FC
:1016D40027082000C200210026082000C1002100A4
:1016E40025082000C000210024082000BF0021009C
:1016F40023082000C600210022082000C500210084
:1017040021082000C400210020082000C3008431E7
:10171400D324200042082100A30020004108210016
:10172400A200200040082100A10020003F08210061
:10173400A00008002000A701A31FA72BA209A3094A
:10174400A20A0319A30AA701A70AA51FB22BA40979
:10175400A509A40A0319A50A0130F7007708A7060A
:10176400A801A901220823040319E12BA601A60A52
:10177400A31BC62B0130A235A30D890BBD2B013051
:10178400F7007708A607BA2B0130A835A90D890BF5
:10179400C72B23082502031DD12B22082402031C76
:1017A400D82B2208A4022308A53B28140130A33611
:1017B400A20C890BD92B0130A602031DC62B2708C6
:1017C4000319E92BA809A909A80A0319A90A2908D0
:1017D400A3002808A20008008A316B228B318B17E2
:1017E4000B172C30F3000E30F4008A3101228B31B8
:1017F4000730F3000B30F4008A3107228B312200CA
:1018040028080319092CA801803138208B312200C3
:1018140027080319112CA7018D3105258B312200CE
:1018240026080319012CA60120006F08ED000130E1
:101834002100B8070030B93D20006F0800302100B6
:101844003902B53003193802031C2C2CB430B8000B
:101854000030B9008C3141248B3120006D086F06B3
:101864000319372C2100B801B90120006F080319AE
:101874003E2C22000C15012C22000C11012C78089E
:10188400790403194E2C512C003021003902B53053
:1018940003193802031C742C2000EF010800790896
:1018A4008500780884008435850D0030840708306D
:1018B400053D80388500003FF300013FF4007308C4
:1018C400023EF5000030743DF6007608803AF700D9
:1018D40021003B08803A7702031D722C3A087502F6
:1018E400031C462C79088500780884008435850D0E
:1018F400003084070830053D80388500003FF30040
:10190400013FF4007308FF3EF500FF30743DF6001C
:1019140021003B08803AF7007608803A7702031DDD
:10192400952C75083A02031808000030210039028A
:10193400B53003193802031C08002000EF01EF0A38
:1019440008000310750D760D2000A5002508031D61
:10195400B42C0030F6000030F5000030F400003004
:10196400F30008007308A0007408A1007508A20021
:101974007608A3001F30A336A20CA10CA00C890B7F
:10198400BD2C2008A400F517FF30F305FF30F40543
:10199400FF30F5050030F6059630A502A51FE52CAD
:1019A4002508803A973E031CAB2C0130F636F50C23
:1019B400F40CF30C890BD82C0130A0002008A507E7
:1019C4000319F62CD72C203025020318AB2C25083C
:1019D4000319F62C0130F335F40DF50DF60D890BD2
:1019E400ED2C0130A502E92C240803190800F309A1
:1019F400F409F509F609F30A0319F40A0319F50AB7
:101A04000319F60A080064302000A2000030A30085
:101A140021003B082000A50021003A082000A40072
:101A24008B319C238D3120002308B3002208B2009F
:101A34000A30A2000030A3003308F4003208F30097
:101A44009C30F500FF30F6008A31E9228D31210007
:101A54003A0873072000A40021003B08743D2000CD
:101A6400A5008B319C238D3120002308B10022086E
:101A7400B0003308F4003208F3009C30F500FF3066
:101A8400F6008A31E9228D3173082000AA00740817
:101A9400AB003108F4003008F300F630F500FF30F5
:101AA400F6008A31E9228D31730820002A07AC0040
:101AB40074082B3DAD0021003A0820002C07AE002D
:101AC40021003B0820002D3DAF0054302200AC0023
:101AD4003A30AD0020003208303E2200AE00200033
:101AE4003008303E2200AF0020002E08303E220095
:101AF400B0000930B1004D30B2003A30B30078087C
:101B0400303EB4000930B5004830B6003A30B70072
:101B140020006F08303E2200B8000D30B9000A30B2
:101B2400BA00BB012C308A31CC2208002000A4006A
:101B34002408031DF61FAE2D7309A6007409A7001F
:101B44007509A8007609A900A60A0319A70A0319AA
:101B5400A80A0319A90AB62D7608A9007508A800D1
:101B64007408A7007308A600760875047404730447
:101B7400031DC52D0030F6000030F5000030F400E0
:101B84000030F30008009630A500FE302905031943
:101B9400EA2D0130A0002008A5070130A936A80CC1
:101BA400A70CA60C890BD02DC72D0130A00020084E
:101BB400A5070130A6070030A73D0030A83D00303E
:101BC400A93D0130A936A80CA70CA60C890BE42D5D
:101BD400FF3029050319FC2DD72D02302502031CE3
:101BE400FE2D0130A5020130A635A70DA80DA90DC3
:101BF400890BF62DA81FEF2D2518082EFF30A605FA
:101C0400FF30A7057F30A805FF30A9050310A50CF8
:101C14002508A000A101A201A3011830A035A10D3F
:101C2400A20DA30D890B102E2008A6042108A704D9
:101C34002208A8042308A9042408031DF61F232E40
:101C4400A9172908F6002808F5002708F400260833
:101C5400F3000800D02E003020000C1A0130F100EF
:101C640000300D180130F2007108031D4C2E2200C3
:101C7400460803194C2E7908803AF000803070022F
:101C8400031D462E01307802031C4C2EFF30F8074A
:101C9400FF30F93D71082200C6007208031D642E4E
:101CA4002A080319642E7908803AF0008030700203
:101CB400031D5E2E053078020318642E0130F807E8
:101CC4000030F93D72082200AA000130A200003061
:101CD400A3008D148C117908803AF00080307002D2
:101CE400031D762E02307802031C8A2E22000C1269
:101CF4007908803AF00080307002031D832E03308F
:101D04007802031C882E22000D108D2E22008C2EAA
:101D140022000C160D140D1508000230A20000302C
:101D2400A3008D108C157908803AF0008030700281
:101D3400031D9E2E04307802031CB32E22000D10C6
:101D44007908803AF00080307002031DAB2E053014
:101D54007802031CB02E22000C12080022000C167C
:101D6400080022000C160D140800A201A301210092
:101D74000C160D147908803AF00080307002031DAF
:101D8400C52E01307802031CCA2E22000D11080052
:101D940022000D150800A201A30108002200230857
:101DA400003A0319D62ECD2E2208003A03192D2EFF
:101DB400013A03198F2E033A0319B72ECD2E0800CA
:101DC400BF302000C2008030C1000030C0000030AD
:101DD400BF0021002B082000C60021002A08200093
:101DE400C500210029082000C40021002808200083
:101DF400C3008431D3248E31200042082100B7006F
:101E0400200041082100B600200040082100B50050
:101E140020003F082100B40037082000D60021002C
:101E240036082000D500210035082000D400210008
:101E340034082000D300210037082000DA002100F4
:101E440036082000D900210035082000D8002100E0
:101E540034082000D7008231C3228E312000560876
:101E64002100AF00200055082100AE0020005408D6
:101E74002100AD00200053082100AC0040302000B8
:101E8400A8000030A7000030A6000030A500210003
:101E940037082000D600210036082000D500210094
:101EA40035082000D400210034082000D30021008C
:101EB40037082000DA00210036082000D90021006C
:101EC40035082000D800210034082000D7008231D2
:101ED400C3228E3120005608AC005508AB005408CC
:101EE400AA005308A900863185268E3120002808CF
:101EF4002100A300200027082100A20020002608BA
:101F04002100A100200025082100A0003708A70017
:101F14003608A6003508A5003408A4008B316723D1
:101F24008E3121002308B3002208B2002108B10039
:101F34002008B00040302000A8004030A700003046
:101F4400A6000030A500210037082000D60021009B
:101F540036082000D500210035082000D4002100D7
:101F640034082000D30021002F082000DA002100CB
:101F74002E082000D90021002D082000D8002100BF
:101F84002C082000D7008231C3228E31200056084D
:101F9400AC005508AB005408AA005308A9008631C8
:101FA40085268E3120002808C2002708C100260893
:101FB400C0002508BF00210033082000C60021000E
:101FC40032082000C500210031082000C40021008F
:101FD40030082000C3008431D324200042082100AB
:101FE400AB00200041082100AA0020004008210085
:0C1FF400A90020003F082100A800080000
:020000040001F9
:08000000FF3FFF3FFF3FFF3F00
:04000E00E43FFF1EAE
:00000001FF
